:1000000071C0000081C000007FC000007DC0000002
:100010007BC0000079C0000077C0000075C0000000
:1000200073C0000071C000006FC000006DC0000010
:100030006BC0000069C0000067C0000065C0000020
:1000400063C0000061C000005FC000005DC0000030
:100050005BC0000059C0000057C0000055C0000040
:1000600053C0000051C000004FC000004DC0000050
:100070004BC0000049C0000047C0000045C0000060
:1000800043C0000041C000003FC000003DC0000070
:100090003BC0000039C0000037C0000035C0000080
:1000A00033C0000031C000002FC000002DC0000090
:1000B0002BC0000029C0000027C0000025C00000A0
:1000C00023C0000021C000001FC000001DC00000B0
:1000D0001BC0000019C0000017C0000015C00000C0
:1000E00013C0000011241FBECFEFD1E2DEBFCDBF91
:1000F00000E00CBF22E0A0E0B2E001C01D92A933F5
:10010000B207E1F79FD1C7C17BCFCF93DF932F9287
:100110003F924F925F926F927F928F929F92AF9297
:10012000BF92CF92DF92EF92FF920F931F93409175
:10013000000250913802642F660F660FE8E1F2E08A
:10014000E60FF01D00915D00008300915E000183C9
:100150002091010230910302232B30910202232BC4
:10016000409100025091380260910002641759F0EA
:100170004395551F503011F4539540E0652F62238D
:10018000603091F701C0E4CF1F910F91FF90EF9085
:10019000DF90CF90BF90AF909F908F907F906F90A7
:1001A0005F904F903F902F90DF91CF910895CF9324
:1001B000DF93E8E1F2E08FE791E29183808393831C
:1001C00082838FEF90E295838483978386838FE782
:1001D00090E291878087938782878FEF9FE1958751
:1001E0008487978786878FE79FE1918B808B938B9E
:1001F000828B8FEF9EE1958B848B978B868B8FE71D
:100200009EE1918F808F938F828F8FEF9DE1958FED
:10021000848F978F868F8AEA809300218093802035
:10022000809300208093801F8093001F8093801E06
:100230008093001E8093801D10921402109215026C
:100240001092160210921702E4E0F2E0118210827E
:1002500013821282158214821782168211861086EA
:100260001386128615861486178616868EEF80935F
:10027000010210920202109203021092000281E029
:10028000809338028DB79EB781159242B0F4A0E8F2
:10029000B1E280E092E2C1E0D2E2FC0122912E9331
:1002A000BE01681B790B9C01225031094DB75EB726
:1002B000CF012417350788F702C060E070E0F8949A
:1002C00080E891E2861B970B9EBF8DBF7894DF91EB
:1002D000CF9108950F931F93062F172FE82FF0E06B
:1002E000EE0FFF1FEE0FFF1FE85EFD4FA081B181F3
:1002F0006C93A081B1811197B183A0837C93A0817D
:10030000B1811197B183A083012E000C220B330B16
:100310003C93A081B1811197B183A08392E09C931B
:10032000A081B1811197B183A08393E09C93A081B8
:10033000B1811197B183A08394E09C93A081B18196
:100340001197B183A08395E09C93A081B18111970F
:10035000B183A08396E09C93A081B1811197B18372
:10036000A08397E09C93A081B1811197B183A08372
:1003700098E09C93A081B1811197B183A08399E00B
:100380009C93A081B1811197B183A0839AE09C9343
:10039000A081B1811197B183A0839BE09C93A08140
:1003A000B1811197B183A0839CE09C93A081B1811E
:1003B0001197B183A0839DE09C93A081B181119797
:1003C000B183A0839EE09C93A081B1811197B183FA
:1003D000A0839FE09C93A081B1811197B183A083FA
:1003E00090E19C93A081B1811197B183A08391E1A9
:1003F0009C93A081B1811197B183A0839CE19C93D0
:10040000A081B1811197B183A0839DE19C9321E0EC
:1004100030E0B90102C0660F771F8A95E2F7CB0181
:10042000442339F080959091010289238093010241
:1004300005C090910102892B809301021F910F91B9
:100440000895FFCFB4DE61DE41E061E272E081E059
:1004500041DF2FEF81EE94E0215080409040E1F7A2
:1004600000C0000080E884B985B1805885B92FEFBD
:1004700081EE94E0215080409040E1F700C0000000
:1004800015B82FEF81EE94E0215080409040E1F7C5
:0A04900000C00000E9CFF894FFCF90
:00000001FF
